:100000000C942A000C9434000C9434000C943400AA
:100010000C9434000C9434000C9434000C94340090
:100020000C9434000C9434000C9434000C94340080
:100030000C9434000C9434000C9434000C94340070
:100040000C9434000C9434000C9434000C94340060
:100050000C94340011241FBECFE5D8E0DEBFCDBF25
:100060000E94BF020C94DA020C940000DF93CF933D
:1000700000D000D0CDB7DEB789836A838981282F6D
:1000800030E03C832B838B819C8181309105D1F0C2
:100090002B813C81223031052CF48B819C8100978F
:1000A00061F01EC02B813C812230310581F08B81B3
:1000B0009C818330910581F013C0EAE3F0E08A81EE
:1000C00080830EC0E7E3F0E08A81808309C0E4E327
:1000D000F0E08A81808304C0E1E3F0E08A818083DC
:1000E0000F900F900F900F90CF91DF910895DF93B5
:1000F000CF9300D000D0CDB7DEB789836A838981E2
:10010000282F30E03C832B838B819C8181309105AB
:10011000D1F02B813C81223031052CF48B819C81E4
:10012000009761F01EC02B813C812230310581F0A7
:100130008B819C818330910581F013C0EBE3F0E06B
:100140008A8180830EC0E8E3F0E08A81808309C061
:10015000E5E3F0E08A81808304C0E2E3F0E08A8195
:1001600080830F900F900F900F90CF91DF910895A3
:10017000DF93CF9300D000D00F92CDB7DEB7898345
:100180006A834B838981282F30E03D832C838C81C7
:100190009D818130910509F443C02C813D8122303D
:1001A00031052CF48C819D81009771F0BCC02C81AD
:1001B0003D812230310509F45FC08C819D818330FF
:1001C000910509F485C0AFC08B818130A1F4AAE309
:1001D000B0E0EAE3F0E08081482F8A81282F30E008
:1001E00081E090E0022E02C0880F991F0A94E2F786
:1001F000842B8C9398C0AAE3B0E0EAE3F0E080811E
:10020000482F8A81282F30E081E090E0022E02C042
:10021000880F991F0A94E2F7809584238C9383C0FA
:100220008B818130A1F4A7E3B0E0E7E3F0E08081C7
:10023000482F8A81282F30E081E090E0022E02C012
:10024000880F991F0A94E2F7842B8C936CC0A7E364
:10025000B0E0E7E3F0E08081482F8A81282F30E08A
:1002600081E090E0022E02C0880F991F0A94E2F705
:10027000809584238C9357C08B818130A1F4A4E3B3
:10028000B0E0E4E3F0E08081482F8A81282F30E05D
:1002900081E090E0022E02C0880F991F0A94E2F7D5
:1002A000842B8C9340C0A4E3B0E0E4E3F0E08081D1
:1002B000482F8A81282F30E081E090E0022E02C092
:1002C000880F991F0A94E2F7809584238C932BC0A2
:1002D0008B818130A1F4A1E3B0E0E1E3F0E0808123
:1002E000482F8A81282F30E081E090E0022E02C062
:1002F000880F991F0A94E2F7842B8C9314C0A1E312
:10030000B0E0E1E3F0E08081482F8A81282F30E0DF
:1003100081E090E0022E02C0880F991F0A94E2F754
:10032000809584238C930F900F900F900F900F90D7
:10033000CF91DF910895DF93CF9300D000D00F923B
:10034000CDB7DEB789836A834B838981282F30E05C
:100350003D832C838C819D818130910509F443C0BC
:100360002C813D81223031052CF48C819D810097B8
:1003700071F0BCC02C813D812230310509F45FC091
:100380008C819D818330910509F485C0AFC08B813C
:100390008130A1F4ABE3B0E0EBE3F0E08081482FE3
:1003A0008A81282F30E081E090E0022E02C0880F81
:1003B000991F0A94E2F7842B8C9398C0ABE3B0E0CA
:1003C000EBE3F0E08081482F8A81282F30E081E044
:1003D00090E0022E02C0880F991F0A94E2F78095E0
:1003E00084238C9383C08B818130A1F4A8E3B0E097
:1003F000E8E3F0E08081482F8A81282F30E081E017
:1004000090E0022E02C0880F991F0A94E2F7842B15
:100410008C936CC0A8E3B0E0E8E3F0E08081482F63
:100420008A81282F30E081E090E0022E02C0880F00
:10043000991F0A94E2F7809584238C9357C08B818F
:100440008130A1F4A5E3B0E0E5E3F0E08081482F3E
:100450008A81282F30E081E090E0022E02C0880FD0
:10046000991F0A94E2F7842B8C9340C0A5E3B0E077
:10047000E5E3F0E08081482F8A81282F30E081E099
:1004800090E0022E02C0880F991F0A94E2F780952F
:1004900084238C932BC08B818130A1F4A2E3B0E044
:1004A000E2E3F0E08081482F8A81282F30E081E06C
:1004B00090E0022E02C0880F991F0A94E2F7842B65
:1004C0008C9314C0A2E3B0E0E2E3F0E08081482F17
:1004D0008A81282F30E081E090E0022E02C0880F50
:1004E000991F0A94E2F7809584238C930F900F90C4
:1004F0000F900F900F90CF91DF910895DF93CF93DE
:1005000000D000D0CDB7DEB78A838A81282F30E0B3
:100510003C832B838B819C8181309105D1F02B8191
:100520003C81223031052CF48B819C81009761F055
:100530001EC02B813C812230310581F08B819C8152
:100540008330910581F013C0E9E3F0E08081898375
:100550000EC0E6E3F0E08081898309C0E3E3F0E0C8
:100560008081898304C0E0E3F0E080818983898110
:100570000F900F900F900F90CF91DF910895DF9320
:10058000CF93CDB7DEB70E94CB0281E063E041E0BC
:100590000E94B800FFCFDF93CF93CDB7DEB7E3E57E
:1005A000F0E08DE68083ECE5F0E089E18083CF9197
:0805B000DF910895F894FFCFDC
:00000001FF
